{
  "contractName": "MediaProof",
  "abi": [
    {
      "inputs": [],
      "stateMutability": "nonpayable",
      "type": "constructor"
    },
    {
      "anonymous": false,
      "inputs": [
        {
          "indexed": false,
          "internalType": "address",
          "name": "account",
          "type": "address"
        },
        {
          "indexed": false,
          "internalType": "uint256",
          "name": "_id",
          "type": "uint256"
        },
        {
          "indexed": false,
          "internalType": "string",
          "name": "message",
          "type": "string"
        }
      ],
      "name": "RejectCreate",
      "type": "event"
    },
    {
      "anonymous": false,
      "inputs": [
        {
          "indexed": true,
          "internalType": "address",
          "name": "_sender",
          "type": "address"
        }
      ],
      "name": "logEnrolled",
      "type": "event"
    },
    {
      "anonymous": false,
      "inputs": [
        {
          "indexed": true,
          "internalType": "uint256",
          "name": "_candidateId",
          "type": "uint256"
        }
      ],
      "name": "mediaCreate",
      "type": "event"
    },
    {
      "inputs": [],
      "name": "contractPaused",
      "outputs": [
        {
          "internalType": "bool",
          "name": "",
          "type": "bool"
        }
      ],
      "stateMutability": "view",
      "type": "function",
      "constant": true
    },
    {
      "inputs": [
        {
          "internalType": "address",
          "name": "",
          "type": "address"
        }
      ],
      "name": "enrolled",
      "outputs": [
        {
          "internalType": "bool",
          "name": "",
          "type": "bool"
        }
      ],
      "stateMutability": "view",
      "type": "function",
      "constant": true
    },
    {
      "inputs": [
        {
          "internalType": "address",
          "name": "",
          "type": "address"
        }
      ],
      "name": "usersMedia",
      "outputs": [
        {
          "internalType": "uint256",
          "name": "",
          "type": "uint256"
        }
      ],
      "stateMutability": "view",
      "type": "function",
      "constant": true
    },
    {
      "inputs": [],
      "name": "enroll",
      "outputs": [],
      "stateMutability": "nonpayable",
      "type": "function"
    },
    {
      "inputs": [
        {
          "internalType": "uint256",
          "name": "_id",
          "type": "uint256"
        },
        {
          "internalType": "string",
          "name": "title",
          "type": "string"
        },
        {
          "internalType": "string",
          "name": "_hash",
          "type": "string"
        }
      ],
      "name": "createMedia",
      "outputs": [],
      "stateMutability": "nonpayable",
      "type": "function"
    },
    {
      "inputs": [
        {
          "internalType": "uint256",
          "name": "_id",
          "type": "uint256"
        }
      ],
      "name": "getMediaById",
      "outputs": [
        {
          "internalType": "string",
          "name": "",
          "type": "string"
        },
        {
          "internalType": "string",
          "name": "",
          "type": "string"
        }
      ],
      "stateMutability": "view",
      "type": "function",
      "constant": true
    },
    {
      "inputs": [],
      "name": "circuitBreaker",
      "outputs": [],
      "stateMutability": "nonpayable",
      "type": "function"
    },
    {
      "inputs": [],
      "name": "destroyContract",
      "outputs": [],
      "stateMutability": "nonpayable",
      "type": "function"
    }
  ],
  "bytecode": "0x608060405260008060006101000a81548160ff02191690831515021790555034801561002a57600080fd5b5033600360006101000a81548173ffffffffffffffffffffffffffffffffffffffff021916908373ffffffffffffffffffffffffffffffffffffffff160217905550610f628061007b6000396000f3fe608060405234801561001057600080fd5b50600436106100885760003560e01c80638a67456a1161005b5780638a67456a146101015780638e67a6371461011f578063e65f2a7e14610150578063fc2552421461015a57610088565b8063092a5cce1461008d57806310eb0e0e1461009757806316efd941146100c75780633f68c69b146100d1575b600080fd5b610095610176565b005b6100b160048036038101906100ac9190610925565b610208565b6040516100be9190610aed565b60405180910390f35b6100cf610228565b005b6100eb60048036038101906100e69190610925565b61030e565b6040516100f89190610bbf565b60405180910390f35b610109610326565b6040516101169190610aed565b60405180910390f35b61013960048036038101906101349190610952565b610337565b604051610147929190610b08565b60405180910390f35b610158610487565b005b610174600480360381019061016f919061097f565b6105b0565b005b600360009054906101000a900473ffffffffffffffffffffffffffffffffffffffff1673ffffffffffffffffffffffffffffffffffffffff163373ffffffffffffffffffffffffffffffffffffffff1614610206576040517f08c379a00000000000000000000000000000000000000000000000000000000081526004016101fd90610b5f565b60405180910390fd5b565b60016020528060005260406000206000915054906101000a900460ff1681565b600360009054906101000a900473ffffffffffffffffffffffffffffffffffffffff1673ffffffffffffffffffffffffffffffffffffffff163373ffffffffffffffffffffffffffffffffffffffff16146102b8576040517f08c379a00000000000000000000000000000000000000000000000000000000081526004016102af90610b5f565b60405180910390fd5b6000151560008054906101000a900460ff16151514156102f15760016000806101000a81548160ff02191690831515021790555061030c565b60008060006101000a81548160ff0219169083151502179055505b565b60026020528060005260406000206000915090505481565b60008054906101000a900460ff1681565b606080600460008481526020019081526020016000206000016004600085815260200190815260200160002060010181805461037290610cd6565b80601f016020809104026020016040519081016040528092919081815260200182805461039e90610cd6565b80156103eb5780601f106103c0576101008083540402835291602001916103eb565b820191906000526020600020905b8154815290600101906020018083116103ce57829003601f168201915b505050505091508080546103fe90610cd6565b80601f016020809104026020016040519081016040528092919081815260200182805461042a90610cd6565b80156104775780601f1061044c57610100808354040283529160200191610477565b820191906000526020600020905b81548152906001019060200180831161045a57829003601f168201915b5050505050905091509150915091565b600160003373ffffffffffffffffffffffffffffffffffffffff1673ffffffffffffffffffffffffffffffffffffffff16815260200190815260200160002060009054906101000a900460ff1615610514576040517f08c379a000000000000000000000000000000000000000000000000000000000815260040161050b90610b9f565b60405180910390fd5b60018060003373ffffffffffffffffffffffffffffffffffffffff1673ffffffffffffffffffffffffffffffffffffffff16815260200190815260200160002060006101000a81548160ff0219169083151502179055503373ffffffffffffffffffffffffffffffffffffffff167f0ee0de0c3550d10f0da5f7258a68f7b7d93acfcd6400435223dce623cb5e597760405160405180910390a2565b6000151560008054906101000a900460ff16151514610604576040517f08c379a00000000000000000000000000000000000000000000000000000000081526004016105fb90610b3f565b60405180910390fd5b826004600082815260200190815260200160002060020160009054906101000a900460ff1615610669576040517f08c379a000000000000000000000000000000000000000000000000000000000815260040161066090610b7f565b60405180910390fd5b6040518060600160405280848152602001838152602001600115158152506004600086815260200190815260200160002060008201518160000190805190602001906106b69291906107e8565b5060208201518160010190805190602001906106d39291906107e8565b5060408201518160020160006101000a81548160ff0219169083151502179055509050506001600560003373ffffffffffffffffffffffffffffffffffffffff1673ffffffffffffffffffffffffffffffffffffffff168152602001908152602001600020600086815260200190815260200160002060006101000a81548160ff021916908315150217905550600260003373ffffffffffffffffffffffffffffffffffffffff1673ffffffffffffffffffffffffffffffffffffffff16815260200190815260200160002060008154809291906107b090610d39565b9190505550837f643657013a0b5f060f69042ddcdb1f0c6d543cfc51e1a626ca6518825fcd547d60405160405180910390a250505050565b8280546107f490610cd6565b90600052602060002090601f016020900481019282610816576000855561085d565b82601f1061082f57805160ff191683800117855561085d565b8280016001018555821561085d579182015b8281111561085c578251825591602001919060010190610841565b5b50905061086a919061086e565b5090565b5b8082111561088757600081600090555060010161086f565b5090565b600061089e61089984610bff565b610bda565b9050828152602081018484840111156108ba576108b9610e14565b5b6108c5848285610c94565b509392505050565b6000813590506108dc81610efe565b92915050565b600082601f8301126108f7576108f6610e0f565b5b813561090784826020860161088b565b91505092915050565b60008135905061091f81610f15565b92915050565b60006020828403121561093b5761093a610e1e565b5b6000610949848285016108cd565b91505092915050565b60006020828403121561096857610967610e1e565b5b600061097684828501610910565b91505092915050565b60008060006060848603121561099857610997610e1e565b5b60006109a686828701610910565b935050602084013567ffffffffffffffff8111156109c7576109c6610e19565b5b6109d3868287016108e2565b925050604084013567ffffffffffffffff8111156109f4576109f3610e19565b5b610a00868287016108e2565b9150509250925092565b610a1381610c5e565b82525050565b6000610a2482610c30565b610a2e8185610c3b565b9350610a3e818560208601610ca3565b610a4781610e23565b840191505092915050565b6000610a5f601d83610c3b565b9150610a6a82610e34565b602082019050919050565b6000610a82602883610c3b565b9150610a8d82610e5d565b604082019050919050565b6000610aa5601e83610c3b565b9150610ab082610eac565b602082019050919050565b6000610ac8601d83610c3b565b9150610ad382610ed5565b602082019050919050565b610ae781610c8a565b82525050565b6000602082019050610b026000830184610a0a565b92915050565b60006040820190508181036000830152610b228185610a19565b90508181036020830152610b368184610a19565b90509392505050565b60006020820190508181036000830152610b5881610a52565b9050919050565b60006020820190508181036000830152610b7881610a75565b9050919050565b60006020820190508181036000830152610b9881610a98565b9050919050565b60006020820190508181036000830152610bb881610abb565b9050919050565b6000602082019050610bd46000830184610ade565b92915050565b6000610be4610bf5565b9050610bf08282610d08565b919050565b6000604051905090565b600067ffffffffffffffff821115610c1a57610c19610de0565b5b610c2382610e23565b9050602081019050919050565b600081519050919050565b600082825260208201905092915050565b6000610c5782610c6a565b9050919050565b60008115159050919050565b600073ffffffffffffffffffffffffffffffffffffffff82169050919050565b6000819050919050565b82818337600083830152505050565b60005b83811015610cc1578082015181840152602081019050610ca6565b83811115610cd0576000848401525b50505050565b60006002820490506001821680610cee57607f821691505b60208210811415610d0257610d01610db1565b5b50919050565b610d1182610e23565b810181811067ffffffffffffffff82111715610d3057610d2f610de0565b5b80604052505050565b6000610d4482610c8a565b91507fffffffffffffffffffffffffffffffffffffffffffffffffffffffffffffffff821415610d7757610d76610d82565b5b600182019050919050565b7f4e487b7100000000000000000000000000000000000000000000000000000000600052601160045260246000fd5b7f4e487b7100000000000000000000000000000000000000000000000000000000600052602260045260246000fd5b7f4e487b7100000000000000000000000000000000000000000000000000000000600052604160045260246000fd5b600080fd5b600080fd5b600080fd5b600080fd5b6000601f19601f8301169050919050565b7f54686520636f6e747261637420686173206265656e2073746f70706564000000600082015250565b7f54686520757365722073686f756c64206265206f776e6572206f66207468652060008201527f636f6e7472616374000000000000000000000000000000000000000000000000602082015250565b7f54686973206d656469612077617320616c726561647920637265617465640000600082015250565b7f4475706c696361746520656e726f6c656d656e74206465746563746564000000600082015250565b610f0781610c4c565b8114610f1257600080fd5b50565b610f1e81610c8a565b8114610f2957600080fd5b5056fea26469706673582212205f170961084d2793cb465e26b1bf04fca05eda7e201f3e7344e5977f48a17fc564736f6c63430008070033",
  "immutableReferences": {},
  "source": "pragma solidity ^0.8.7;\r\n\r\ncontract MediaProof {\r\n    // to be used in curcuit braker\r\n    bool public contractPaused = false;\r\n    //Read / wtite users enrolement status\r\n    mapping(address => bool) public enrolled;\r\n    // keeps track of amount of media stored by each user\r\n    mapping(address => uint) public usersMedia;\r\n    address owner;\r\n\r\n    // structure of media to be saved.\r\n    struct Media {\r\n        string title;\r\n        string _hash;\r\n        bool uploaded;\r\n    }\r\n\r\n    constructor() public {\r\n        owner = msg.sender;\r\n    }\r\n\r\n    //read stored media by id\r\n    mapping(uint256 => Media) private mediaStore;\r\n    //read users wallets storing media\r\n    mapping(address => mapping(uint256 => bool)) private isStored;\r\n\r\n    event logEnrolled(address indexed _sender);\r\n    // event MediaCreate(string name);\r\n    event RejectCreate(address account, uint256 _id, string message);\r\n\r\n    event mediaCreate (\r\n        uint indexed _candidateId\r\n    );\r\n    // reject duplicate enrollement modifier\r\n    modifier notDupEnrol(){\r\n        require(\r\n            !enrolled[msg.sender],\r\n            \"Duplicate enrolement detected\"\r\n        );\r\n        _;\r\n    }\r\n\r\n    // Reject saving duplicate media modifier\r\n    modifier rejectDupCreation(uint256 _id){\r\n        require(\r\n            !mediaStore[_id].uploaded,\r\n            \"This media was already created\"\r\n        );\r\n        _;\r\n    }\r\n    // If the contract is paused, stop the modified function\r\n    modifier checkIfPaused() {\r\n        require(contractPaused == false, \"The contract has been stopped\");\r\n        _;\r\n    }\r\n    /* Create a modifer that checks if the msg.sender is the owner of the contract */\r\n    modifier onlyOwner(){\r\n        require(\r\n            msg.sender == owner,\r\n            \"The user should be owner of the contract\"\r\n        );\r\n        _;\r\n    }\r\n    // reject duplicate enrollement modifier\r\n    function enroll() public notDupEnrol() {\r\n        enrolled[msg.sender] = true;\r\n        emit logEnrolled(msg.sender);\r\n    }\r\n    /*\r\n    This function stores media on the blockchain\r\n    */\r\n    function createMedia(uint256 _id, string memory title, string memory _hash) public checkIfPaused() rejectDupCreation(_id) {\r\n        mediaStore[_id] = Media(title, _hash, true);\r\n        isStored[msg.sender][_id] = true;\r\n        usersMedia[msg.sender] ++;\r\n        emit mediaCreate(_id);\r\n    }\r\n\r\n    //Get a single uploaded media by using its id\r\n    function getMediaById(uint256 _id) public view returns (string memory, string memory) {\r\n        return (mediaStore[_id].title, mediaStore[_id]._hash);\r\n    }\r\n\r\n    // circuit braker to stop all public opperations\r\n    function circuitBreaker() public onlyOwner {// onlyOwner can call\r\n        if (contractPaused == false) {contractPaused = true;}\r\n        else {contractPaused = false;}\r\n    }\r\n\r\n    // for destructing the contract permanently ()\r\n    function destroyContract() public onlyOwner {\r\n        // selfdestruct(msg.sender);\r\n    }\r\n}",
  "sourcePath": "D:\\blockchain\\proof-of-existence\\contracts\\MediaProof.sol",
  "compiler": {
    "name": "solc",
    "version": "0.8.7+commit.e28d00a7.Emscripten.clang"
  },
  "schemaVersion": "3.4.3",
  "updatedAt": "2021-08-14T22:53:30.868Z",
  "networkType": "ethereum",
  "devdoc": {
    "kind": "dev",
    "methods": {},
    "version": 1
  },
  "userdoc": {
    "kind": "user",
    "methods": {},
    "version": 1
  }
}