{
  "contractName": "MediaTracker",
  "abi": [
    {
      "constant": true,
      "inputs": [
        {
          "name": "",
          "type": "address"
        }
      ],
      "name": "enrolled",
      "outputs": [
        {
          "name": "",
          "type": "bool"
        }
      ],
      "payable": false,
      "stateMutability": "view",
      "type": "function"
    },
    {
      "constant": true,
      "inputs": [
        {
          "name": "",
          "type": "address"
        }
      ],
      "name": "usersMedia",
      "outputs": [
        {
          "name": "",
          "type": "uint256"
        }
      ],
      "payable": false,
      "stateMutability": "view",
      "type": "function"
    },
    {
      "inputs": [],
      "payable": false,
      "stateMutability": "nonpayable",
      "type": "constructor"
    },
    {
      "anonymous": false,
      "inputs": [
        {
          "indexed": true,
          "name": "_sender",
          "type": "address"
        }
      ],
      "name": "logEnrolled",
      "type": "event"
    },
    {
      "anonymous": false,
      "inputs": [
        {
          "indexed": false,
          "name": "account",
          "type": "address"
        },
        {
          "indexed": false,
          "name": "uuid",
          "type": "uint256"
        },
        {
          "indexed": false,
          "name": "message",
          "type": "string"
        }
      ],
      "name": "RejectCreate",
      "type": "event"
    },
    {
      "anonymous": false,
      "inputs": [
        {
          "indexed": true,
          "name": "_candidateId",
          "type": "uint256"
        }
      ],
      "name": "mediaCreate",
      "type": "event"
    },
    {
      "anonymous": false,
      "inputs": [
        {
          "indexed": false,
          "name": "title",
          "type": "string"
        },
        {
          "indexed": false,
          "name": "hash",
          "type": "string"
        }
      ],
      "name": "mediaFound",
      "type": "event"
    },
    {
      "constant": false,
      "inputs": [],
      "name": "enroll",
      "outputs": [],
      "payable": false,
      "stateMutability": "nonpayable",
      "type": "function"
    },
    {
      "constant": false,
      "inputs": [
        {
          "name": "uuid",
          "type": "uint256"
        },
        {
          "name": "title",
          "type": "string"
        },
        {
          "name": "_hash",
          "type": "string"
        }
      ],
      "name": "createMedia",
      "outputs": [],
      "payable": false,
      "stateMutability": "nonpayable",
      "type": "function"
    },
    {
      "constant": false,
      "inputs": [
        {
          "name": "uuid",
          "type": "uint256"
        }
      ],
      "name": "getMediaByUUID",
      "outputs": [],
      "payable": false,
      "stateMutability": "nonpayable",
      "type": "function"
    },
    {
      "constant": true,
      "inputs": [
        {
          "name": "uuid",
          "type": "uint256"
        }
      ],
      "name": "isOwnerOf",
      "outputs": [
        {
          "name": "",
          "type": "bool"
        }
      ],
      "payable": false,
      "stateMutability": "view",
      "type": "function"
    },
    {
      "constant": true,
      "inputs": [],
      "name": "userMediaCount",
      "outputs": [
        {
          "name": "",
          "type": "uint256"
        }
      ],
      "payable": false,
      "stateMutability": "view",
      "type": "function"
    }
  ],
  "bytecode": "0x608060405234801561001057600080fd5b5033600260006101000a81548173ffffffffffffffffffffffffffffffffffffffff021916908373ffffffffffffffffffffffffffffffffffffffff160217905550610a59806100616000396000f3fe608060405234801561001057600080fd5b506004361061007d5760003560e01c80638a1899e81161005b5780638a1899e814610164578063ab6520f414610182578063e65f2a7e146101c8578063fc255242146101d25761007d565b806310eb0e0e146100825780633f68c69b146100de5780636f83026414610136575b600080fd5b6100c46004803603602081101561009857600080fd5b81019080803573ffffffffffffffffffffffffffffffffffffffff16906020019092919050505061032e565b604051808215151515815260200191505060405180910390f35b610120600480360360208110156100f457600080fd5b81019080803573ffffffffffffffffffffffffffffffffffffffff16906020019092919050505061034e565b6040518082815260200191505060405180910390f35b6101626004803603602081101561014c57600080fd5b8101908080359060200190929190505050610366565b005b61016c6104d6565b6040518082815260200191505060405180910390f35b6101ae6004803603602081101561019857600080fd5b810190808035906020019092919050505061051d565b604051808215151515815260200191505060405180910390f35b6101d061061c565b005b61032c600480360360608110156101e857600080fd5b81019080803590602001909291908035906020019064010000000081111561020f57600080fd5b82018360208201111561022157600080fd5b8035906020019184600183028401116401000000008311171561024357600080fd5b91908080601f016020809104026020016040519081016040528093929190818152602001838380828437600081840152601f19601f820116905080830192505050505050509192919290803590602001906401000000008111156102a657600080fd5b8201836020820111156102b857600080fd5b803590602001918460018302840111640100000000831117156102da57600080fd5b91908080601f016020809104026020016040519081016040528093929190818152602001838380828437600081840152601f19601f820116905080830192505050505050509192919290505050610777565b005b60006020528060005260406000206000915054906101000a900460ff1681565b60016020528060005260406000206000915090505481565b7fd973e7543ea391ae262d2078149b3b23f3e72d5004225504e8609a9f0b16767660036000838152602001908152602001600020600001600360008481526020019081526020016000206001016040518080602001806020018381038352858181546001816001161561010002031660029004815260200191508054600181600116156101000203166002900480156104405780601f1061041557610100808354040283529160200191610440565b820191906000526020600020905b81548152906001019060200180831161042357829003601f168201915b50508381038252848181546001816001161561010002031660029004815260200191508054600181600116156101000203166002900480156104c35780601f10610498576101008083540402835291602001916104c3565b820191906000526020600020905b8154815290600101906020018083116104a657829003601f168201915b505094505050505060405180910390a150565b6000600160003373ffffffffffffffffffffffffffffffffffffffff1673ffffffffffffffffffffffffffffffffffffffff16815260200190815260200160002054905090565b600081600460003373ffffffffffffffffffffffffffffffffffffffff1673ffffffffffffffffffffffffffffffffffffffff168152602001908152602001600020600082815260200190815260200160002060009054906101000a900460ff166105f0576040517f08c379a000000000000000000000000000000000000000000000000000000000815260040180806020018281038252601c8152602001807f596f7520646964206e6f742075706c6f616420746869732066696c650000000081525060200191505060405180910390fd5b6003600084815260200190815260200160002060020160009054906101000a900460ff16915050919050565b6000803373ffffffffffffffffffffffffffffffffffffffff1673ffffffffffffffffffffffffffffffffffffffff16815260200190815260200160002060009054906101000a900460ff16156106db576040517f08c379a000000000000000000000000000000000000000000000000000000000815260040180806020018281038252601d8152602001807f4475706c696361746520656e726f6c656d656e7420646574656374656400000081525060200191505060405180910390fd5b60016000803373ffffffffffffffffffffffffffffffffffffffff1673ffffffffffffffffffffffffffffffffffffffff16815260200190815260200160002060006101000a81548160ff0219169083151502179055503373ffffffffffffffffffffffffffffffffffffffff167f0ee0de0c3550d10f0da5f7258a68f7b7d93acfcd6400435223dce623cb5e597760405160405180910390a2565b826003600082815260200190815260200160002060020160009054906101000a900460ff161561080f576040517f08c379a000000000000000000000000000000000000000000000000000000000815260040180806020018281038252601e8152602001807f54686973206d656469612077617320616c72656164792063726561746564000081525060200191505060405180910390fd5b60405180606001604052808481526020018381526020016001151581525060036000868152602001908152602001600020600082015181600001908051906020019061085c929190610988565b506020820151816001019080519060200190610879929190610988565b5060408201518160020160006101000a81548160ff0219169083151502179055509050506001600460003373ffffffffffffffffffffffffffffffffffffffff1673ffffffffffffffffffffffffffffffffffffffff168152602001908152602001600020600086815260200190815260200160002060006101000a81548160ff021916908315150217905550600160003373ffffffffffffffffffffffffffffffffffffffff1673ffffffffffffffffffffffffffffffffffffffff16815260200190815260200160002060008154809291906001019190505550837f643657013a0b5f060f69042ddcdb1f0c6d543cfc51e1a626ca6518825fcd547d60405160405180910390a250505050565b828054600181600116156101000203166002900490600052602060002090601f016020900481019282601f106109c957805160ff19168380011785556109f7565b828001600101855582156109f7579182015b828111156109f65782518255916020019190600101906109db565b5b509050610a049190610a08565b5090565b610a2a91905b80821115610a26576000816000905550600101610a0e565b5090565b9056fea165627a7a723058204ee46e1d22819d5ab79b8dc326a7d11c42c23262b75cf5c37c9f75037b368b970029",
  "source": "pragma solidity ^0.5.0;\r\n\r\ncontract MediaTracker {\r\n\r\n    //Read users enrolement status\r\n    mapping(address => bool) public enrolled;\r\n\r\n    mapping(address => uint) public usersMedia;\r\n    address owner;\r\n\r\n    // structure of media to be saved.\r\n    struct Media {\r\n        string title;\r\n        string _hash;\r\n        bool uploaded;\r\n    }\r\n\r\n    constructor() public {\r\n        owner = msg.sender;\r\n        //        enroll();\r\n    }\r\n\r\n    //read stored media by id\r\n    mapping(uint256 => Media) private mediaStore;\r\n    //read users wallets storing media\r\n    mapping(address => mapping(uint256 => bool)) private isStored;\r\n\r\n    event logEnrolled(address indexed _sender);\r\n    // event MediaCreate(string name);\r\n    event RejectCreate(address account, uint256 uuid, string message);\r\n\r\n    event mediaCreate (\r\n        uint indexed _candidateId\r\n    );\r\n\r\n    event mediaFound (\r\n        string title, string hash\r\n    );\r\n\r\n    modifier isOwner(uint256 uuid){\r\n        require(\r\n            isStored[msg.sender][uuid],\r\n            \"You did not upload this file\"\r\n        );\r\n        _;\r\n    }\r\n\r\n    // modifier isEnrolled(){\r\n    //     require(\r\n    //         enrolled[msg.sender],\r\n    //         \"You are not registered\"\r\n    //     );\r\n    //     _;\r\n    // }\r\n\r\n    // reject duplicate enrollement modifier\r\n    modifier notDupEnrol(){\r\n        require(\r\n            !enrolled[msg.sender],\r\n            \"Duplicate enrolement detected\"\r\n        );\r\n        _;\r\n    }\r\n\r\n    // Reject saving duplicate media modifier\r\n    modifier rejectDupCreation(uint256 uuid){\r\n        require(\r\n            !mediaStore[uuid].uploaded,\r\n            \"This media was already created\"\r\n        );\r\n        _;\r\n    }\r\n\r\n    // reject duplicate enrollement modifier\r\n    function enroll() public notDupEnrol() {\r\n        enrolled[msg.sender] = true;\r\n        emit logEnrolled(msg.sender);\r\n    }\r\n    /*\r\n    This function stores media on the blockchain\r\n    */\r\n    function createMedia(uint256 uuid, string memory title, string memory _hash) public rejectDupCreation(uuid) {\r\n        mediaStore[uuid] = Media(title, _hash, true);\r\n        isStored[msg.sender][uuid] = true;\r\n        usersMedia[msg.sender] ++;\r\n        emit mediaCreate(uuid);\r\n    }\r\n\r\n    //Get a single uploaded media\r\n    function getMediaByUUID(uint256 uuid) public {\r\n        emit mediaFound(mediaStore[uuid].title, mediaStore[uuid]._hash);\r\n        //        return (mediaStore[uuid].title, mediaStore[uuid]._hash);\r\n    }\r\n\r\n    // checking if the a user ownos a media in the media store\r\n    function isOwnerOf(uint256 uuid) public view isOwner(uuid) returns (bool){\r\n        return (mediaStore[uuid].uploaded);\r\n    }\r\n\r\n    //   counting how many media a user has\r\n    function userMediaCount() view public returns (uint){\r\n        return (usersMedia[msg.sender]);\r\n    }\r\n\r\n}",
  "sourcePath": "G:/consensys/proof-of-existence/contracts/MediaTracker.sol",
  "compiler": {
    "name": "solc",
    "version": "0.5.8+commit.23d335f2.Emscripten.clang"
  },
  "schemaVersion": "3.0.11",
  "updatedAt": "2019-06-21T15:25:32.233Z",
  "devdoc": {
    "methods": {}
  },
  "userdoc": {
    "methods": {}
  }
}