{
  "contractName": "MediaTracker",
  "abi": [
    {
      "constant": true,
      "inputs": [
        {
          "name": "",
          "type": "address"
        }
      ],
      "name": "enrolled",
      "outputs": [
        {
          "name": "",
          "type": "bool"
        }
      ],
      "payable": false,
      "stateMutability": "view",
      "type": "function"
    },
    {
      "constant": true,
      "inputs": [
        {
          "name": "",
          "type": "address"
        }
      ],
      "name": "usersMedia",
      "outputs": [
        {
          "name": "",
          "type": "uint256"
        }
      ],
      "payable": false,
      "stateMutability": "view",
      "type": "function"
    },
    {
      "inputs": [],
      "payable": false,
      "stateMutability": "nonpayable",
      "type": "constructor"
    },
    {
      "anonymous": false,
      "inputs": [
        {
          "indexed": true,
          "name": "_sender",
          "type": "address"
        }
      ],
      "name": "logEnrolled",
      "type": "event"
    },
    {
      "anonymous": false,
      "inputs": [
        {
          "indexed": false,
          "name": "account",
          "type": "address"
        },
        {
          "indexed": false,
          "name": "_id",
          "type": "uint256"
        },
        {
          "indexed": false,
          "name": "message",
          "type": "string"
        }
      ],
      "name": "RejectCreate",
      "type": "event"
    },
    {
      "anonymous": false,
      "inputs": [
        {
          "indexed": true,
          "name": "_candidateId",
          "type": "uint256"
        }
      ],
      "name": "mediaCreate",
      "type": "event"
    },
    {
      "anonymous": false,
      "inputs": [
        {
          "indexed": false,
          "name": "title",
          "type": "string"
        },
        {
          "indexed": false,
          "name": "hash",
          "type": "string"
        }
      ],
      "name": "mediaFound",
      "type": "event"
    },
    {
      "constant": false,
      "inputs": [],
      "name": "enroll",
      "outputs": [],
      "payable": false,
      "stateMutability": "nonpayable",
      "type": "function"
    },
    {
      "constant": false,
      "inputs": [
        {
          "name": "_id",
          "type": "uint256"
        },
        {
          "name": "title",
          "type": "string"
        },
        {
          "name": "_hash",
          "type": "string"
        }
      ],
      "name": "createMedia",
      "outputs": [],
      "payable": false,
      "stateMutability": "nonpayable",
      "type": "function"
    },
    {
      "constant": true,
      "inputs": [
        {
          "name": "_id",
          "type": "uint256"
        }
      ],
      "name": "getMediaById",
      "outputs": [
        {
          "name": "",
          "type": "string"
        },
        {
          "name": "",
          "type": "string"
        }
      ],
      "payable": false,
      "stateMutability": "view",
      "type": "function"
    },
    {
      "constant": true,
      "inputs": [
        {
          "name": "_id",
          "type": "uint256"
        }
      ],
      "name": "isOwnerOf",
      "outputs": [
        {
          "name": "",
          "type": "bool"
        }
      ],
      "payable": false,
      "stateMutability": "view",
      "type": "function"
    },
    {
      "constant": true,
      "inputs": [],
      "name": "userMediaCount",
      "outputs": [
        {
          "name": "",
          "type": "uint256"
        }
      ],
      "payable": false,
      "stateMutability": "view",
      "type": "function"
    }
  ],
  "bytecode": "0x608060405234801561001057600080fd5b5033600260006101000a81548173ffffffffffffffffffffffffffffffffffffffff021916908373ffffffffffffffffffffffffffffffffffffffff160217905550610b3e806100616000396000f3fe608060405234801561001057600080fd5b506004361061007d5760003560e01c80638e67a6371161005b5780638e67a63714610154578063ab6520f414610267578063e65f2a7e146102ad578063fc255242146102b75761007d565b806310eb0e0e146100825780633f68c69b146100de5780638a1899e814610136575b600080fd5b6100c46004803603602081101561009857600080fd5b81019080803573ffffffffffffffffffffffffffffffffffffffff169060200190929190505050610413565b604051808215151515815260200191505060405180910390f35b610120600480360360208110156100f457600080fd5b81019080803573ffffffffffffffffffffffffffffffffffffffff169060200190929190505050610433565b6040518082815260200191505060405180910390f35b61013e61044b565b6040518082815260200191505060405180910390f35b6101806004803603602081101561016a57600080fd5b8101908080359060200190929190505050610492565b604051808060200180602001838103835285818151815260200191508051906020019080838360005b838110156101c45780820151818401526020810190506101a9565b50505050905090810190601f1680156101f15780820380516001836020036101000a031916815260200191505b50838103825284818151815260200191508051906020019080838360005b8381101561022a57808201518184015260208101905061020f565b50505050905090810190601f1680156102575780820380516001836020036101000a031916815260200191505b5094505050505060405180910390f35b6102936004803603602081101561027d57600080fd5b8101908080359060200190929190505050610602565b604051808215151515815260200191505060405180910390f35b6102b5610701565b005b610411600480360360608110156102cd57600080fd5b8101908080359060200190929190803590602001906401000000008111156102f457600080fd5b82018360208201111561030657600080fd5b8035906020019184600183028401116401000000008311171561032857600080fd5b91908080601f016020809104026020016040519081016040528093929190818152602001838380828437600081840152601f19601f8201169050808301925050505050505091929192908035906020019064010000000081111561038b57600080fd5b82018360208201111561039d57600080fd5b803590602001918460018302840111640100000000831117156103bf57600080fd5b91908080601f016020809104026020016040519081016040528093929190818152602001838380828437600081840152601f19601f82011690508083019250505050505050919291929050505061085c565b005b60006020528060005260406000206000915054906101000a900460ff1681565b60016020528060005260406000206000915090505481565b6000600160003373ffffffffffffffffffffffffffffffffffffffff1673ffffffffffffffffffffffffffffffffffffffff16815260200190815260200160002054905090565b6060806003600084815260200190815260200160002060000160036000858152602001908152602001600020600101818054600181600116156101000203166002900480601f0160208091040260200160405190810160405280929190818152602001828054600181600116156101000203166002900480156105565780601f1061052b57610100808354040283529160200191610556565b820191906000526020600020905b81548152906001019060200180831161053957829003601f168201915b50505050509150808054600181600116156101000203166002900480601f0160208091040260200160405190810160405280929190818152602001828054600181600116156101000203166002900480156105f25780601f106105c7576101008083540402835291602001916105f2565b820191906000526020600020905b8154815290600101906020018083116105d557829003601f168201915b5050505050905091509150915091565b600081600460003373ffffffffffffffffffffffffffffffffffffffff1673ffffffffffffffffffffffffffffffffffffffff168152602001908152602001600020600082815260200190815260200160002060009054906101000a900460ff166106d5576040517f08c379a000000000000000000000000000000000000000000000000000000000815260040180806020018281038252601c8152602001807f596f7520646964206e6f742075706c6f616420746869732066696c650000000081525060200191505060405180910390fd5b6003600084815260200190815260200160002060020160009054906101000a900460ff16915050919050565b6000803373ffffffffffffffffffffffffffffffffffffffff1673ffffffffffffffffffffffffffffffffffffffff16815260200190815260200160002060009054906101000a900460ff16156107c0576040517f08c379a000000000000000000000000000000000000000000000000000000000815260040180806020018281038252601d8152602001807f4475706c696361746520656e726f6c656d656e7420646574656374656400000081525060200191505060405180910390fd5b60016000803373ffffffffffffffffffffffffffffffffffffffff1673ffffffffffffffffffffffffffffffffffffffff16815260200190815260200160002060006101000a81548160ff0219169083151502179055503373ffffffffffffffffffffffffffffffffffffffff167f0ee0de0c3550d10f0da5f7258a68f7b7d93acfcd6400435223dce623cb5e597760405160405180910390a2565b826003600082815260200190815260200160002060020160009054906101000a900460ff16156108f4576040517f08c379a000000000000000000000000000000000000000000000000000000000815260040180806020018281038252601e8152602001807f54686973206d656469612077617320616c72656164792063726561746564000081525060200191505060405180910390fd5b604051806060016040528084815260200183815260200160011515815250600360008681526020019081526020016000206000820151816000019080519060200190610941929190610a6d565b50602082015181600101908051906020019061095e929190610a6d565b5060408201518160020160006101000a81548160ff0219169083151502179055509050506001600460003373ffffffffffffffffffffffffffffffffffffffff1673ffffffffffffffffffffffffffffffffffffffff168152602001908152602001600020600086815260200190815260200160002060006101000a81548160ff021916908315150217905550600160003373ffffffffffffffffffffffffffffffffffffffff1673ffffffffffffffffffffffffffffffffffffffff16815260200190815260200160002060008154809291906001019190505550837f643657013a0b5f060f69042ddcdb1f0c6d543cfc51e1a626ca6518825fcd547d60405160405180910390a250505050565b828054600181600116156101000203166002900490600052602060002090601f016020900481019282601f10610aae57805160ff1916838001178555610adc565b82800160010185558215610adc579182015b82811115610adb578251825591602001919060010190610ac0565b5b509050610ae99190610aed565b5090565b610b0f91905b80821115610b0b576000816000905550600101610af3565b5090565b9056fea165627a7a72305820bd0df0f2129e1de14f57ea64fc280027487d26842aa563d1f8753c4f2466f1bf0029",
  "source": "pragma solidity ^0.5.0;\r\n\r\ncontract MediaTracker {\r\n\r\n    //Read users enrolement status\r\n    mapping(address => bool) public enrolled;\r\n\r\n    mapping(address => uint) public usersMedia;\r\n    address owner;\r\n\r\n    // structure of media to be saved.\r\n    struct Media {\r\n        string title;\r\n        string _hash;\r\n        bool uploaded;\r\n    }\r\n\r\n    constructor() public {\r\n        owner = msg.sender;\r\n        //        enroll();\r\n    }\r\n\r\n    //read stored media by id\r\n    mapping(uint256 => Media) private mediaStore;\r\n    //read users wallets storing media\r\n    mapping(address => mapping(uint256 => bool)) private isStored;\r\n\r\n    event logEnrolled(address indexed _sender);\r\n    // event MediaCreate(string name);\r\n    event RejectCreate(address account, uint256 _id, string message);\r\n\r\n    event mediaCreate (\r\n        uint indexed _candidateId\r\n    );\r\n\r\n    event mediaFound (\r\n        string title, string hash\r\n    );\r\n\r\n    modifier isOwner(uint256 _id){\r\n        require(\r\n            isStored[msg.sender][_id],\r\n            \"You did not upload this file\"\r\n        );\r\n        _;\r\n    }\r\n\r\n    // modifier isEnrolled(){\r\n    //     require(\r\n    //         enrolled[msg.sender],\r\n    //         \"You are not registered\"\r\n    //     );\r\n    //     _;\r\n    // }\r\n\r\n    // reject duplicate enrollement modifier\r\n    modifier notDupEnrol(){\r\n        require(\r\n            !enrolled[msg.sender],\r\n            \"Duplicate enrolement detected\"\r\n        );\r\n        _;\r\n    }\r\n\r\n    // Reject saving duplicate media modifier\r\n    modifier rejectDupCreation(uint256 _id){\r\n        require(\r\n            !mediaStore[_id].uploaded,\r\n            \"This media was already created\"\r\n        );\r\n        _;\r\n    }\r\n\r\n    // reject duplicate enrollement modifier\r\n    function enroll() public notDupEnrol() {\r\n        enrolled[msg.sender] = true;\r\n        emit logEnrolled(msg.sender);\r\n    }\r\n    /*\r\n    This function stores media on the blockchain\r\n    */\r\n    function createMedia(uint256 _id, string memory title, string memory _hash) public rejectDupCreation(_id) {\r\n        mediaStore[_id] = Media(title, _hash, true);\r\n        isStored[msg.sender][_id] = true;\r\n        usersMedia[msg.sender] ++;\r\n        emit mediaCreate(_id);\r\n    }\r\n\r\n    //Get a single uploaded media\r\n    function getMediaById(uint256 _id) view public returns (string memory, string memory) {\r\n//        emit mediaFound(mediaStore[_id].title, mediaStore[_id]._hash);\r\n        return (mediaStore[_id].title, mediaStore[_id]._hash);\r\n    }\r\n\r\n    // checking if the a user ownos a media in the media store\r\n    function isOwnerOf(uint256 _id) public view isOwner(_id) returns (bool){\r\n        return (mediaStore[_id].uploaded);\r\n    }\r\n\r\n    //   counting how many media a user has\r\n    function userMediaCount() view public returns (uint){\r\n        return (usersMedia[msg.sender]);\r\n    }\r\n\r\n}",
  "sourcePath": "G:/consensys/proof-of-existence/contracts/MediaTracker.sol",
  "compiler": {
    "name": "solc",
    "version": "0.5.8+commit.23d335f2.Emscripten.clang"
  },
  "schemaVersion": "3.0.11",
  "updatedAt": "2019-06-27T16:33:30.196Z",
  "devdoc": {
    "methods": {}
  },
  "userdoc": {
    "methods": {}
  }
}