{
  "contractName": "MediaProof",
  "abi": [
    {
      "constant": true,
      "inputs": [
        {
          "name": "",
          "type": "address"
        }
      ],
      "name": "enrolled",
      "outputs": [
        {
          "name": "",
          "type": "bool"
        }
      ],
      "payable": false,
      "stateMutability": "view",
      "type": "function"
    },
    {
      "constant": true,
      "inputs": [
        {
          "name": "",
          "type": "address"
        }
      ],
      "name": "usersMedia",
      "outputs": [
        {
          "name": "",
          "type": "uint256"
        }
      ],
      "payable": false,
      "stateMutability": "view",
      "type": "function"
    },
    {
      "constant": true,
      "inputs": [],
      "name": "contractPaused",
      "outputs": [
        {
          "name": "",
          "type": "bool"
        }
      ],
      "payable": false,
      "stateMutability": "view",
      "type": "function"
    },
    {
      "inputs": [],
      "payable": false,
      "stateMutability": "nonpayable",
      "type": "constructor"
    },
    {
      "anonymous": false,
      "inputs": [
        {
          "indexed": true,
          "name": "_sender",
          "type": "address"
        }
      ],
      "name": "logEnrolled",
      "type": "event"
    },
    {
      "anonymous": false,
      "inputs": [
        {
          "indexed": false,
          "name": "account",
          "type": "address"
        },
        {
          "indexed": false,
          "name": "_id",
          "type": "uint256"
        },
        {
          "indexed": false,
          "name": "message",
          "type": "string"
        }
      ],
      "name": "RejectCreate",
      "type": "event"
    },
    {
      "anonymous": false,
      "inputs": [
        {
          "indexed": true,
          "name": "_candidateId",
          "type": "uint256"
        }
      ],
      "name": "mediaCreate",
      "type": "event"
    },
    {
      "constant": false,
      "inputs": [],
      "name": "enroll",
      "outputs": [],
      "payable": false,
      "stateMutability": "nonpayable",
      "type": "function"
    },
    {
      "constant": false,
      "inputs": [
        {
          "name": "_id",
          "type": "uint256"
        },
        {
          "name": "title",
          "type": "string"
        },
        {
          "name": "_hash",
          "type": "string"
        }
      ],
      "name": "createMedia",
      "outputs": [],
      "payable": false,
      "stateMutability": "nonpayable",
      "type": "function"
    },
    {
      "constant": true,
      "inputs": [
        {
          "name": "_id",
          "type": "uint256"
        }
      ],
      "name": "getMediaById",
      "outputs": [
        {
          "name": "",
          "type": "string"
        },
        {
          "name": "",
          "type": "string"
        }
      ],
      "payable": false,
      "stateMutability": "view",
      "type": "function"
    },
    {
      "constant": false,
      "inputs": [],
      "name": "circuitBreaker",
      "outputs": [],
      "payable": false,
      "stateMutability": "nonpayable",
      "type": "function"
    },
    {
      "constant": false,
      "inputs": [],
      "name": "destroyContract",
      "outputs": [],
      "payable": false,
      "stateMutability": "nonpayable",
      "type": "function"
    }
  ],
  "bytecode": "0x608060405260008060006101000a81548160ff02191690831515021790555034801561002a57600080fd5b5033600360006101000a81548173ffffffffffffffffffffffffffffffffffffffff021916908373ffffffffffffffffffffffffffffffffffffffff160217905550610c548061007b6000396000f3fe608060405234801561001057600080fd5b50600436106100885760003560e01c80638a67456a1161005b5780638a67456a146101555780638e67a63714610177578063e65f2a7e1461028a578063fc2552421461029457610088565b8063092a5cce1461008d57806310eb0e0e1461009757806316efd941146100f35780633f68c69b146100fd575b600080fd5b6100956103f0565b005b6100d9600480360360208110156100ad57600080fd5b81019080803573ffffffffffffffffffffffffffffffffffffffff1690602001909291905050506104af565b604051808215151515815260200191505060405180910390f35b6100fb6104cf565b005b61013f6004803603602081101561011357600080fd5b81019080803573ffffffffffffffffffffffffffffffffffffffff1690602001909291905050506105cc565b6040518082815260200191505060405180910390f35b61015d6105e4565b604051808215151515815260200191505060405180910390f35b6101a36004803603602081101561018d57600080fd5b81019080803590602001909291905050506105f6565b604051808060200180602001838103835285818151815260200191508051906020019080838360005b838110156101e75780820151818401526020810190506101cc565b50505050905090810190601f1680156102145780820380516001836020036101000a031916815260200191505b50838103825284818151815260200191508051906020019080838360005b8381101561024d578082015181840152602081019050610232565b50505050905090810190601f16801561027a5780820380516001836020036101000a031916815260200191505b5094505050505060405180910390f35b610292610766565b005b6103ee600480360360608110156102aa57600080fd5b8101908080359060200190929190803590602001906401000000008111156102d157600080fd5b8201836020820111156102e357600080fd5b8035906020019184600183028401116401000000008311171561030557600080fd5b91908080601f016020809104026020016040519081016040528093929190818152602001838380828437600081840152601f19601f8201169050808301925050505050505091929192908035906020019064010000000081111561036857600080fd5b82018360208201111561037a57600080fd5b8035906020019184600183028401116401000000008311171561039c57600080fd5b91908080601f016020809104026020016040519081016040528093929190818152602001838380828437600081840152601f19601f8201169050808301925050505050505091929192905050506108c2565b005b600360009054906101000a900473ffffffffffffffffffffffffffffffffffffffff1673ffffffffffffffffffffffffffffffffffffffff163373ffffffffffffffffffffffffffffffffffffffff1614610496576040517f08c379a0000000000000000000000000000000000000000000000000000000008152600401808060200182810382526028815260200180610c016028913960400191505060405180910390fd5b3373ffffffffffffffffffffffffffffffffffffffff16ff5b60016020528060005260406000206000915054906101000a900460ff1681565b600360009054906101000a900473ffffffffffffffffffffffffffffffffffffffff1673ffffffffffffffffffffffffffffffffffffffff163373ffffffffffffffffffffffffffffffffffffffff1614610575576040517f08c379a0000000000000000000000000000000000000000000000000000000008152600401808060200182810382526028815260200180610c016028913960400191505060405180910390fd5b600015156000809054906101000a900460ff16151514156105af5760016000806101000a81548160ff0219169083151502179055506105ca565b60008060006101000a81548160ff0219169083151502179055505b565b60026020528060005260406000206000915090505481565b6000809054906101000a900460ff1681565b6060806004600084815260200190815260200160002060000160046000858152602001908152602001600020600101818054600181600116156101000203166002900480601f0160208091040260200160405190810160405280929190818152602001828054600181600116156101000203166002900480156106ba5780601f1061068f576101008083540402835291602001916106ba565b820191906000526020600020905b81548152906001019060200180831161069d57829003601f168201915b50505050509150808054600181600116156101000203166002900480601f0160208091040260200160405190810160405280929190818152602001828054600181600116156101000203166002900480156107565780601f1061072b57610100808354040283529160200191610756565b820191906000526020600020905b81548152906001019060200180831161073957829003601f168201915b5050505050905091509150915091565b600160003373ffffffffffffffffffffffffffffffffffffffff1673ffffffffffffffffffffffffffffffffffffffff16815260200190815260200160002060009054906101000a900460ff1615610826576040517f08c379a000000000000000000000000000000000000000000000000000000000815260040180806020018281038252601d8152602001807f4475706c696361746520656e726f6c656d656e7420646574656374656400000081525060200191505060405180910390fd5b60018060003373ffffffffffffffffffffffffffffffffffffffff1673ffffffffffffffffffffffffffffffffffffffff16815260200190815260200160002060006101000a81548160ff0219169083151502179055503373ffffffffffffffffffffffffffffffffffffffff167f0ee0de0c3550d10f0da5f7258a68f7b7d93acfcd6400435223dce623cb5e597760405160405180910390a2565b600015156000809054906101000a900460ff1615151461094a576040517f08c379a000000000000000000000000000000000000000000000000000000000815260040180806020018281038252601d8152602001807f54686520636f6e747261637420686173206265656e2073746f7070656400000081525060200191505060405180910390fd5b826004600082815260200190815260200160002060020160009054906101000a900460ff16156109e2576040517f08c379a000000000000000000000000000000000000000000000000000000000815260040180806020018281038252601e8152602001807f54686973206d656469612077617320616c72656164792063726561746564000081525060200191505060405180910390fd5b604051806060016040528084815260200183815260200160011515815250600460008681526020019081526020016000206000820151816000019080519060200190610a2f929190610b5b565b506020820151816001019080519060200190610a4c929190610b5b565b5060408201518160020160006101000a81548160ff0219169083151502179055509050506001600560003373ffffffffffffffffffffffffffffffffffffffff1673ffffffffffffffffffffffffffffffffffffffff168152602001908152602001600020600086815260200190815260200160002060006101000a81548160ff021916908315150217905550600260003373ffffffffffffffffffffffffffffffffffffffff1673ffffffffffffffffffffffffffffffffffffffff16815260200190815260200160002060008154809291906001019190505550837f643657013a0b5f060f69042ddcdb1f0c6d543cfc51e1a626ca6518825fcd547d60405160405180910390a250505050565b828054600181600116156101000203166002900490600052602060002090601f016020900481019282601f10610b9c57805160ff1916838001178555610bca565b82800160010185558215610bca579182015b82811115610bc9578251825591602001919060010190610bae565b5b509050610bd79190610bdb565b5090565b610bfd91905b80821115610bf9576000816000905550600101610be1565b5090565b9056fe54686520757365722073686f756c64206265206f776e6572206f662074686520636f6e7472616374a165627a7a72305820c835f92b9821dd9c4d701a39caeae0588f9a08ce6df5c2edc668154fb8bd18b90029",
  "source": "pragma solidity ^0.5.0;\r\n\r\ncontract MediaProof {\r\n    // to be used in curcuit braker\r\n    bool public contractPaused = false;\r\n    //Read / wtite users enrolement status\r\n    mapping(address => bool) public enrolled;\r\n    // keeps track of amount of media stored by each user\r\n    mapping(address => uint) public usersMedia;\r\n    address owner;\r\n\r\n    // structure of media to be saved.\r\n    struct Media {\r\n        string title;\r\n        string _hash;\r\n        bool uploaded;\r\n    }\r\n\r\n    constructor() public {\r\n        owner = msg.sender;\r\n    }\r\n\r\n    //read stored media by id\r\n    mapping(uint256 => Media) private mediaStore;\r\n    //read users wallets storing media\r\n    mapping(address => mapping(uint256 => bool)) private isStored;\r\n\r\n    event logEnrolled(address indexed _sender);\r\n    // event MediaCreate(string name);\r\n    event RejectCreate(address account, uint256 _id, string message);\r\n\r\n    event mediaCreate (\r\n        uint indexed _candidateId\r\n    );\r\n    // reject duplicate enrollement modifier\r\n    modifier notDupEnrol(){\r\n        require(\r\n            !enrolled[msg.sender],\r\n            \"Duplicate enrolement detected\"\r\n        );\r\n        _;\r\n    }\r\n\r\n    // Reject saving duplicate media modifier\r\n    modifier rejectDupCreation(uint256 _id){\r\n        require(\r\n            !mediaStore[_id].uploaded,\r\n            \"This media was already created\"\r\n        );\r\n        _;\r\n    }\r\n    // If the contract is paused, stop the modified function\r\n    modifier checkIfPaused() {\r\n        require(contractPaused == false, \"The contract has been stopped\");\r\n        _;\r\n    }\r\n    /* Create a modifer that checks if the msg.sender is the owner of the contract */\r\n    modifier onlyOwner(){\r\n        require(\r\n            msg.sender == owner,\r\n            \"The user should be owner of the contract\"\r\n        );\r\n        _;\r\n    }\r\n    // reject duplicate enrollement modifier\r\n    function enroll() public notDupEnrol() {\r\n        enrolled[msg.sender] = true;\r\n        emit logEnrolled(msg.sender);\r\n    }\r\n    /*\r\n    This function stores media on the blockchain\r\n    */\r\n    function createMedia(uint256 _id, string memory title, string memory _hash) public checkIfPaused() rejectDupCreation(_id) {\r\n        mediaStore[_id] = Media(title, _hash, true);\r\n        isStored[msg.sender][_id] = true;\r\n        usersMedia[msg.sender] ++;\r\n        emit mediaCreate(_id);\r\n    }\r\n\r\n    //Get a single uploaded media by using its id\r\n    function getMediaById(uint256 _id) public view returns (string memory, string memory) {\r\n        return (mediaStore[_id].title, mediaStore[_id]._hash);\r\n    }\r\n\r\n    // circuit braker to stop all public opperations\r\n    function circuitBreaker() public onlyOwner {// onlyOwner can call\r\n        if (contractPaused == false) {contractPaused = true;}\r\n        else {contractPaused = false;}\r\n    }\r\n\r\n    // for destructing the contract permanently ()\r\n    function destroyContract() public onlyOwner {\r\n        selfdestruct(msg.sender);\r\n    }\r\n}",
  "sourcePath": "G:/consensys/proof-of-existence/contracts/MediaProof.sol",
  "compiler": {
    "name": "solc",
    "version": "0.5.8+commit.23d335f2.Emscripten.clang"
  },
  "schemaVersion": "3.0.11",
  "updatedAt": "2019-06-28T17:43:13.821Z",
  "devdoc": {
    "methods": {}
  },
  "userdoc": {
    "methods": {}
  }
}